:020000040000FA
:0400000025EF01F0F7
:08000800056ED8CF06F0E0CF31
:1000100007F00001E9CF0DF0EACF08F0E1CF09F0D9
:10002000E2CF0AF0D9CF0BF0DACF0CF0F3CF14F017
:10003000F4CF15F0FACF16F000C00FF001C010F0A9
:1000400002C011F003C012F004C013F0F2A82CEFAC
:1000500000F0F2B25BEF00F0F0A632EF00F0F0B08B
:1000600060EF00F09DAA38EF00F09EBA65EF00F057
:100070000FC000F010C001F011C002F012C003F078
:1000800013C004F00E8E0DC0E9FF08C0EAFF09C0DE
:10009000E1FF0AC0E2FF0BC0D9FF0CC0DAFF14C0B9
:1000A000F3FF15C0F4FF16C0FAFF055007C0E0FFCC
:1000B00006C0D8FF1000010E186EF29238EF00F063
:1000C000010E196EF09038EF00F0296A010E1A6ED9
:1000D0002950292A036A1B0FE96E000E0320EA6EDD
:1000E0009EAAFED7AECFEFFF29500108F1E2956A34
:1000F00029C08CFF9E9A38EF00F022509EA8FED7B0
:10010000AD6E23509EA8FED7AD6E24509EA8FED79C
:10011000AD6E000C2750016A265C03E226C000F099
:100120000CD0006A080E286E263600362750005C78
:10013000D8B0006E0136282EF7D7000C22C026F06A
:100140000A0E276EE7DF01C026F00A0E276EE2DFF7
:1001500000500F0B236E22C026F00A0E276EDADF46
:1001600000500F0B246E96908D8096928D922350A6
:10017000010B02E18B9001D08B809490D8902330BA
:10018000010B02E18B9201D08B8294922330006E9E
:1001900000323F0E00160050010B02E18B9401D09B
:1001A0008B8494942330006E003200321F0E0016B0
:1001B0000050010B02E18B9601D08B8694969692AB
:1001C0008D8296908D902450010B02E18B9001D08E
:1001D0008B809490D8902430010B02E18B9201D057
:1001E0008B8294922430006E00323F0E0016005035
:1001F000010B02E18B9401D08B8494942430006E27
:10020000003200321F0E00160050010B02E18B96E7
:1002100001D08B86949696928D8296908D80A4EFD5
:1002200001F0EA6A220EE96EEF500DE0060E016E53
:10023000006A002EFED7012EFBD77B0E006E002E2B
:10024000FED7EF2EF3D7AEEF01F0F86AD09E0D8EF9
:10025000EA6AE96A810EAF6EA60EAC6E900EAB6EC6
:10026000C180C182C184C196070EB46E186A196A32
:100270001A6A050E1D6E1E6A1F6A206AC180C1823D
:10028000C184C196C2909698C69A949A948894967E
:10029000010EC66E000EC76ED190800ED56ECD6A6F
:1002A000000ECA6E000ECB6E070EB46E9650100E86
:1002B000006E002EFED70000B450A19CB56AF288F3
:1002C000F0869D8AC00EF2121FC022F01EC023F0DD
:1002D0001DC024F012DF185202E0186A1E2A1952BB
:1002E00004E0196A1E5201E01E061A5213E01A6A4F
:1002F0001BC021F021A402D01CC01DF021A207D0F8
:100300001FC022F01EC023F01DC024F0F6DE21A085
:1003100001D01E6A1D501E5C02E2000E01D0010ECB
:100320001F6E1F5205E0939E8A9E939C8A7C04D088
:10033000939C8A9C939E8A8E1E50205C0CE01EC06B
:1003400020F01EC022F0FAD61FC022F01EC023F0FB
:100350001DC024F0D2DEC80E226E63D7BCD70300C6
:020000040030CA
:0E00000000270F0E000085000FC00FE00F401C
:00000001FF
;PIC18F458
