:0400000018EF01F004
:08000800046ED8CF05F0E0CF33
:1000100006F00001E9CF0CF0EACF07F0E1CF08F0DD
:10002000E2CF09F0D9CF0AF0DACF0BF0F3CF12F01C
:10003000F4CF13F0FACF14F0F5CF15F0F6CF16F099
:10004000F7CF17F000C00EF001C00FF002C010F0A3
:1000500003C011F0F2A830EF00F0F2B263EF00F04D
:10006000F0A636EF00F0F0B067EF00F09DAA3CEF8D
:1000700000F09EBA8FEF00F00EC000F00FC001F04C
:1000800010C002F011C003F00CC0E9FF07C0EAFF86
:10009000078E08C0E1FF09C0E2FF0AC0D9FF0BC00C
:1000A000DAFF12C0F3FF13C0F4FF14C0FAFF15C04B
:1000B000F5FF16C0F6FF17C0F7FF045006C0E0FFBB
:1000C00005C0D8FF10001980F2923CEF00F01982B1
:1000D000F0903CEF00F0948E82BEFED7080E006ECA
:1000E000276A008E0ED0009E0CD0D89082BED88099
:1000F0002732008C06D0009C002EF7D727C001F0D5
:100100000CD0A70E00BE2D0E016E012EFED70000F2
:1001100000BEE9D700BCEFD7E8D791EF00F0198413
:10012000DAD701C01AF09E9A3CEF00F0949C8B9CA9
:10013000080E016E00D00000018E0ED0019E263206
:10014000D8B08B8CD8A08B9C018C06D0019C012E42
:10015000F6D700D000008B8CA70EE96EE92EFED7F3
:1001600000D001BEEBD701BCF1D7120022C026F0AF
:10017000DDDF266ADBDF23C026F0D8DF266AD6DF84
:1001800024C026F0D3DF120096908D8096928D9237
:10019000EBEF00F02450016A235C03E223C000F07F
:1001A0000CD0006A080E256E233600362450005C01
:1001B000D8B0006E0136252EF7D7120096928D82A8
:1001C00096908D90F9EF00F096928D8296908D80AA
:1001D00002EF01F0D9D721C023F00A0E246EDADF36
:1001E00001C023F00A0E246ED5DF946A00C08BFF95
:1001F000E5D721C023F00A0E246ECCDF946A00C03C
:100200008BFFE2D750EF01F0EA6A210EE96EEF5062
:100210000DE0060E016E006A002EFED7012EFBD700
:100220007B0E006E002EFED7EF2EF3D76FEF01F09E
:10023000F86AD09E078E949C8B8C19901992199411
:10024000050E1D6EC180C182C184C196070EB46EB9
:100250001E6A1F90206AF288F0869D8AC00EF212F4
:10026000D26A226A1EC023F01DC024F07FDF939E55
:100270008A8E939C8A9C19A003D019901F701E2A05
:1002800019A203D019921F701E0619A404D0199444
:10029000939C8A8C1F901FA01DD01EC021F09AD75E
:1002A0001F921D501E5C01E31F821FA205D0939C6C
:1002B0008A8C939E8A9E04D0939C8A9C939E8A8E5D
:1002C000000E1FB2010E216E226E1EC023F01DC053
:1002D00024F04CDF1F90206AC80E216E95D7CBD733
:0202E000030019
:020000040030CA
:0E00000000220E0E000081000FC00FE00F4026
:00000001FF
;PIC18F458
;CRC=4453  CREATED="04-mars-21 20:41"
