:040000002DEF01F0EF
:08000800046ED8CF05F0E0CF33
:1000100006F00001E9CF0CF0EACF07F0E1CF08F0DD
:10002000E2CF09F0D9CF0AF0DACF0BF0F3CF12F01C
:10003000F4CF13F0FACF14F0F5CF15F0F6CF16F099
:10004000F7CF17F000C00EF001C00FF002C010F0A3
:1000500003C011F0F2A830EF00F0F2B25DEF00F053
:10006000F0A636EF00F0F0B061EF00F00EC000F047
:100070000FC001F010C002F011C003F00CC0E9FF86
:1000800007C0EAFF078E08C0E1FF09C0E2FF0AC00F
:10009000D9FF0BC0DAFF12C0F3FF13C0F4FF14C086
:1000A000FAFF15C0F5FF16C0F6FF17C0F7FF0450A2
:1000B00006C0E0FF05C0D8FF10001980F29236EFAD
:1000C00000F01982F09036EF00F02250016A215CB6
:1000D00003E221C000F00CD0006A080E236E213626
:1000E00000362250005CD8B0006E0136232EF7D7C0
:1000F0001200EA6A1E0EE96EEF500DE0060E016E68
:10010000006A002EFED7012EFBD77B0E006E002E5C
:10011000FED7EF2EF3D712001BC021F00A0E226E7D
:10012000D4DF01C021F00A0E226ECFDF00C01CF028
:100130001BC021F00A0E226EC8DF00C01DF0969091
:100140008D8096928D92956A1CC08CFF96928D82BE
:100150000A0E1E6ECEDF96908D90956A1DC08CFFA4
:1001600096908D900A0E1E6EC4DF45EF01F0949CB0
:100170008B9C080E016E00D00000018E0ED0019EF7
:100180002132D8B08B8CD8A08B9C018C06D0019CDE
:10019000012EF6D700D000008B8CA70EE96EE92E59
:1001A000FED700D001BEEBD701BCF1D71200200E64
:1001B0001CA8300E1D6E1BC000F01BAE08D0001E28
:1001C000002A00C01BF02D0E1D6E1C8E1C800150DD
:1001D0001BC021F0640E226E78DF00C01BF0300ED1
:1001E00001241E6E1BC021F00A0E226E6EDF300E3F
:1001F0000024206E300E01241F6E1DC000F0300E52
:100200001E5C04E01C821CBE1C8412D01DC01EF0AB
:10021000200E1D6E300E1F5C04E01C801CBE1C8274
:1002200007D0D8A41C8004E11EC01FF0200E1E6E53
:100230001CB405D01CB206D01CB007D009D01DC01C
:1002400021F095DF1EC021F092DF1FC021F08FDF6B
:1002500020C021F08CDF4AEF01F0F86AD09E078EB3
:10026000949C8B8C19901992C180C182C184C196D3
:10027000070EB46E1A6AF288F086C00EF212D26AC5
:10028000939E8A8E1AC01BF047D71AC01BF0180E17
:100290001C6E8DD7200E216E6ADFFA0E1E6E29DFCE
:1002A00019A002D019901A2A19A202D019921A067E
:1002B0001A5009080EE1939E8A9E939C8A8C0A0E1E
:1002C0001B6EFA0E1E6E15DF1B2EFBD71A6A939C4F
:0602D0008A9CD6D7030052
:020000040030CA
:0E00000000220E0E000081000FC00FE00F4026
:00000001FF
;PIC18F458
;CRC=5698  CREATED="19-févr.-21 16:12"
