:04000000B7EF00F066
:08000800046ED8CF05F0E0CF33
:1000100006F00001E9CF0CF0EACF07F0E1CF08F0DD
:10002000E2CF09F0D9CF0AF0DACF0BF0F3CF12F01C
:10003000F4CF13F0FACF14F0F5CF15F0F6CF16F099
:10004000F7CF17F000C00EF001C00FF002C010F0A3
:1000500003C011F0F2A830EF00F0F2B25DEF00F053
:10006000F0A636EF00F0F0B061EF00F00EC000F047
:100070000FC001F010C002F011C003F00CC0E9FF86
:1000800007C0EAFF078E08C0E1FF09C0E2FF0AC00F
:10009000D9FF0BC0DAFF12C0F3FF13C0F4FF14C086
:1000A000FAFF15C0F5FF16C0F6FF17C0F7FF0450A2
:1000B00006C0E0FF05C0D8FF10001980F29236EFAD
:1000C00000F01982F09036EF00F02050016A1F5CBA
:1000D00003E21FC000F00CD0006A080E216E1F362C
:1000E00000362050005CD8B0006E0136212EF7D7C4
:1000F0001200EA6A1E0EE96EEF500DE0060E016E68
:10010000006A002EFED7012EFBD77B0E006E002E5C
:10011000FED7EF2EF3D712001BC01FF00A0E206E81
:10012000D4DF01C01FF00A0E206ECFDF00C01CF02C
:100130001BC01FF00A0E206EC8DF00C01DF0969095
:100140008D8096928D92956A1CC08CFF96928D82BE
:100150000A0E1E6ECEDF96908D90956A1DC08CFFA4
:1001600096908D900A0E1E6EC4DFCDEF00F0F86AF7
:10017000D09E078E19901992C180C182C184C19608
:10018000070EB46E1A6AF288F086C00EF212D26AB6
:10019000939E8A8E1AC01BF0BFD7FA0E1E6EA9DF7F
:1001A00019A002D019901A2A19A202D019921A067F
:1001B0001A5009080EE1939E8A9E939C8A8C0A0E1F
:1001C0001B6EFA0E1E6E95DF1B2EFBD71A6A939CD0
:0601D0008A9CDED703004B
:020000040030CA
:0E00000000220E0E000081000FC00FE00F4026
:00000001FF
;PIC18F458
;CRC=E2D8  CREATED="19-févr.-21 14:26"
