:040000005CEF01F0C0
:08000800046ED8CF05F0E0CF33
:1000100006F00001E9CF0CF0EACF07F0E1CF08F0DD
:10002000E2CF09F0D9CF0AF0DACF0BF0F3CF12F01C
:10003000F4CF13F0FACF14F0F5CF15F0F6CF16F099
:10004000F7CF17F000C00EF001C00FF002C010F0A3
:1000500003C011F0F2A830EF00F0F2B25DEF00F053
:10006000F0A636EF00F0F0B061EF00F00EC000F047
:100070000FC001F010C002F011C003F00CC0E9FF86
:1000800007C0EAFF078E08C0E1FF09C0E2FF0AC00F
:10009000D9FF0BC0DAFF12C0F3FF13C0F4FF14C086
:1000A000FAFF15C0F5FF16C0F6FF17C0F7FF0450A2
:1000B00006C0E0FF05C0D8FF10001980F29236EFAD
:1000C00000F01982F09036EF00F02A4E422A2564A3
:1000D00000002A4E422A256400002A4E422A256446
:1000E0000000414C41524D200000949C8B9C080E16
:1000F000016E00D00000018E0ED0019E2332D8B0D8
:100100008B8CD8A08B9C018C06D0019C012EF6D73D
:1001100000D000008B8CA70EE96EE92EFED700D030
:1001200001BEEBD701BCF1D712000900F6CF1EF0DB
:10013000F7CF1FF0F5CF23F0D8DF1EC0F6FF1FC0AA
:10014000F7FF1D2EF2D712002450016A235C03E250
:1001500023C000F00CD0006A080E256E233600364E
:100160002450005CD8B0006E0136252EF7D712005F
:10017000200E1EA8300E1F6E1DC000F01DAE08D050
:10018000001E002A00C01DF02D0E1F6E1E8E1E8048
:1001900001501DC023F0640E246ED6DF00C01DF098
:1001A000300E0124206E1DC023F00A0E246ECCDF19
:1001B000300E0024226E300E0124216E1FC000F08C
:1001C000300E205C04E01E821EBE1E8412D01FC0B2
:1001D00020F0200E1F6E300E215C04E01E801EBE3B
:1001E0001E8207D0D8A41E8004E120C021F0200E7A
:1001F000206E1EB405D01EB206D01EB007D009D0A6
:100200001FC023F072DF20C023F06FDF21C023F076
:100210006CDF22C023F069DF1200EA6A200EE96E6B
:10022000EF500DE0060E016E006A002EFED7012E83
:10023000FBD77B0E006E002EFED7EF2EF3D71200F9
:100240001DC023F00A0E246E7FDF01C023F00A0ECA
:10025000246E7ADF00C01EF01DC023F00A0E246E4B
:1002600073DF00C01FF096908D8096928D92956AF4
:100270001EC08CFF96928D820A0E206ECEDF969065
:100280008D90956A1FC08CFF96908D900A0E206EFF
:10029000C4DF82EF01F00900F5520CE0F6CF1DF04B
:1002A000F7CF1EF0F5CF23F020DF1DC0F6FF1EC0F4
:1002B000F7FFF1D7B1EF01F0F86AD09E078E949C5A
:1002C0008B8C199019921B6A1A6AC180C182C184F1
:1002D000C196070EB46E1C6AF288F086C00EF21248
:1002E000D26ACA0EF66E000EF76E040E1D6E1DDF8A
:1002F0001CC01DF0180E1E6E3BDF939E8A8E1CC024
:100300001DF09ED7FA0E206E88DF19A00ED019902E
:100310001C2AD20EF66E000EF76E040E1D6E05DF5F
:100320001CC01DF0180E1E6E23DF19A20ED01992EC
:100330001C06DA0EF66E000EF76E040E1D6EF5DE6C
:100340001CC01DF0180E1E6E13DF1C501D0813E19B
:10035000939E8A9E939C8A8CE20EF66E000EF76E38
:100360009AD70A0E1D6EFA0E206E57DF1D2EFBD790
:0A0370001C6A939C8A9CC1D703000D
:020000040030CA
:0E00000000220E0E000081000FC00FE00F4026
:00000001FF
;PIC18F458
;CRC=2C54  CREATED="24-févr.-21 15:24"
