:0400000041EF01F0DB
:08000800046ED8CF05F0E0CF33
:1000100006F00001E9CF0CF0EACF07F0E1CF08F0DD
:10002000E2CF09F0D9CF0AF0DACF0BF0F3CF12F01C
:10003000F4CF13F0FACF14F0F5CF15F0F6CF16F099
:10004000F7CF17F000C00EF001C00FF002C010F0A3
:1000500003C011F0F2A830EF00F0F2B25DEF00F053
:10006000F0A636EF00F0F0B061EF00F00EC000F047
:100070000FC001F010C002F011C003F00CC0E9FF86
:1000800007C0EAFF078E08C0E1FF09C0E2FF0AC00F
:10009000D9FF0BC0DAFF12C0F3FF13C0F4FF14C086
:1000A000FAFF15C0F5FF16C0F6FF17C0F7FF0450A2
:1000B00006C0E0FF05C0D8FF10001980F29236EFAD
:1000C00000F01982F09036EF00F0414C41524D2083
:1000D00000002450016A235C03E223C000F00CD02E
:1000E000006A080E256E233600362450005CD8B016
:1000F000006E0136252EF7D71200EA6A200EE96E4F
:10010000EF500DE0060E016E006A002EFED7012EA4
:10011000FBD77B0E006E002EFED7EF2EF3D712001A
:100120001DC023F00A0E246ED4DF01C023F00A0E96
:10013000246ECFDF00C01EF01DC023F00A0E246E17
:10014000C8DF00C01FF096908D8096928D92956AC0
:100150001EC08CFF96928D820A0E206ECEDF969086
:100160008D90956A1FC08CFF96908D900A0E206E20
:10017000C4DF5BEF01F0949C8B9C080E016E00D0F5
:100180000000018E0ED0019E2332D8B08B8CD8A0F7
:100190008B9C018C06D0019C012EF6D700D000006C
:1001A0008B8CA70EE96EE92EFED700D001BEEBD7EF
:1001B00001BCF1D71200200E1EA8300E1F6E1DC00C
:1001C00000F01DAE08D0001E002A00C01DF02D0E4C
:1001D0001F6E1E8E1E8001501DC023F0640E246E03
:1001E00078DF00C01DF0300E0124206E1DC023F00A
:1001F0000A0E246E6EDF300E0024226E300E0124B3
:10020000216E1FC000F0300E205C04E01E821EBE76
:100210001E8412D01FC020F0200E1F6E300E215CF5
:1002200004E01E801EBE1E8207D0D8A41E8004E1FA
:1002300020C021F0200E206E1EB405D01EB206D0C4
:100240001EB007D009D01FC023F095DF20C023F0D7
:1002500092DF21C023F08FDF22C023F08CDF120059
:100260000900F5520CE0F6CF1DF0F7CF1EF0F5CFE8
:1002700023F081DF1DC0F6FF1EC0F7FFF1D78EEF20
:1002800001F0F86AD09E078E949C8B8C199019927D
:100290001B6A1A6AC180C182C184C196070EB46EFE
:1002A0001C6AF288F086C00EF212D26A939E8A8E81
:1002B0001CC01DF035D7FA0E206E1FDF19A010D01C
:1002C00019901C2A4E0E236E56DF500E236E53DFFC
:1002D0001CC01DF0180E1E6E6EDF200E236E4BDF4D
:1002E00019A210D019921C064E0E236E44DF500E38
:1002F000236E41DF1CC01DF0180E1E6E5CDF200E49
:10030000236E39DF1C501D0813E1939E8A9E939C37
:100310008A8CCA0EF66E000EF76EA2D70A0E1D6EFC
:10032000FA0E206EEADE1D2EFBD71C6A939C8A9C77
:04033000BDD7030032
:020000040030CA
:0E00000000220E0E000081000FC00FE00F4026
:00000001FF
;PIC18F458
;CRC=D4F0  CREATED="22-févr.-21 14:35"
