:040000006EEF00F0AF
:08000800046ED8CF05F0E0CF33
:1000100006F00001E9CF0CF0EACF07F0E1CF08F0DD
:10002000E2CF09F0D9CF0AF0DACF0BF0F3CF12F01C
:10003000F4CF13F0FACF14F0F5CF15F0F6CF16F099
:10004000F7CF17F000C00EF001C00FF002C010F0A3
:1000500003C011F0F0A630EF00F0F0B057EF00F061
:100060000EC000F00FC001F010C002F011C003F08C
:100070000CC0E9FF07C0EAFF078E08C0E1FF09C016
:10008000E2FF0AC0D9FF0BC0DAFF12C0F3FF13C0B2
:10009000F4FF14C0FAFF15C0F5FF16C0F6FF17C035
:1000A000F7FF045006C0E0FF05C0D8FF1000F09035
:1000B00030EF00F0EA6A1B0EE96EEF500DE0060E1D
:1000C000016E006A002EFED7012EFBD77B0E006E5C
:1000D000002EFED7EF2EF3D785EF00F0F86AD09E02
:1000E000078E19901992C180C182C184C196070EF2
:1000F000B46E1A6AF288F086C00EF212D26A956A5D
:100100001AC08CFFFA0E1B6ED5D71A2A1A50630834
:0801100001E11A6AF4D70300B3
:020000040030CA
:0E00000000220E0E000081000FC00FE00F4026
:00000001FF
;PIC18F458
;CRC=DC2B  CREATED="17-févr.-21 12:18"
